{
	"main.sol": {
		"Raffle": {
			"abi": [
				{
					"inputs": [],
					"stateMutability": "payable",
					"type": "constructor"
				},
				{
					"anonymous": false,
					"inputs": [
						{
							"indexed": false,
							"internalType": "uint256",
							"name": "amount",
							"type": "uint256"
						}
					],
					"name": "RaffleEnded",
					"type": "event"
				},
				{
					"inputs": [],
					"name": "bid",
					"outputs": [],
					"stateMutability": "payable",
					"type": "function"
				},
				{
					"inputs": [],
					"name": "raffleEnd",
					"outputs": [],
					"stateMutability": "nonpayable",
					"type": "function"
				}
			],
			"devdoc": {
				"kind": "dev",
				"methods": {},
				"version": 1
			},
			"evm": {
				"assembly": "    /* \"main.sol\":61:1037  contract Raffle {... */\n  mstore(0x40, 0x80)\n    /* \"main.sol\":347:357  msg.sender */\n  caller\n    /* \"main.sol\":339:344  admin */\n  0x01\n  0x00\n    /* \"main.sol\":339:357  admin = msg.sender */\n  0x0100\n  exp\n  dup2\n  sload\n  dup2\n  0xffffffffffffffffffffffffffffffffffffffff\n  mul\n  not\n  and\n  swap1\n  dup4\n  0xffffffffffffffffffffffffffffffffffffffff\n  and\n  mul\n  or\n  swap1\n  sstore\n  pop\n    /* \"main.sol\":375:376  0 */\n  0x00\n    /* \"main.sol\":367:372  money */\n  0x02\n    /* \"main.sol\":367:376  money = 0 */\n  dup2\n  swap1\n  sstore\n  pop\n    /* \"main.sol\":61:1037  contract Raffle {... */\n  dataSize(sub_0)\n  dup1\n  dataOffset(sub_0)\n  0x00\n  codecopy\n  0x00\n  return\nstop\n\nsub_0: assembly {\n        /* \"main.sol\":61:1037  contract Raffle {... */\n      mstore(0x40, 0x80)\n      jumpi(tag_1, lt(calldatasize, 0x04))\n      shr(0xe0, calldataload(0x00))\n      dup1\n      0x1998aeef\n      eq\n      tag_2\n      jumpi\n      dup1\n      0xa558d893\n      eq\n      tag_3\n      jumpi\n    tag_1:\n      0x00\n      dup1\n      revert\n        /* \"main.sol\":389:598  function bid() public payable raffleIsOpen(ended) {... */\n    tag_2:\n      tag_4\n      tag_5\n      jump\t// in\n    tag_4:\n      stop\n        /* \"main.sol\":604:855  function raffleEnd() public raffleIsOpen(ended) {... */\n    tag_3:\n      callvalue\n      dup1\n      iszero\n      tag_6\n      jumpi\n      0x00\n      dup1\n      revert\n    tag_6:\n      pop\n      tag_7\n      tag_8\n      jump\t// in\n    tag_7:\n      stop\n        /* \"main.sol\":389:598  function bid() public payable raffleIsOpen(ended) {... */\n    tag_5:\n        /* \"main.sol\":432:437  ended */\n      0x03\n      0x00\n      swap1\n      sload\n      swap1\n      0x0100\n      exp\n      swap1\n      div\n      0xff\n      and\n        /* \"main.sol\":255:260  isEnd */\n      dup1\n        /* \"main.sol\":254:260  !isEnd */\n      iszero\n        /* \"main.sol\":246:288  require(!isEnd, \"Raffle is already ended\") */\n      tag_10\n      jumpi\n      mload(0x40)\n      0x08c379a000000000000000000000000000000000000000000000000000000000\n      dup2\n      mstore\n      0x04\n      add\n      dup1\n      dup1\n      0x20\n      add\n      dup3\n      dup2\n      sub\n      dup3\n      mstore\n      0x17\n      dup2\n      mstore\n      0x20\n      add\n      dup1\n      0x526166666c6520697320616c726561647920656e646564000000000000000000\n      dup2\n      mstore\n      pop\n      0x20\n      add\n      swap2\n      pop\n      pop\n      mload(0x40)\n      dup1\n      swap2\n      sub\n      swap1\n      revert\n    tag_10:\n        /* \"main.sol\":527:539  participants */\n      0x00\n        /* \"main.sol\":545:555  msg.sender */\n      caller\n        /* \"main.sol\":527:556  participants.push(msg.sender) */\n      swap1\n      dup1\n      0x01\n      dup2\n      sload\n      add\n      dup1\n      dup3\n      sstore\n      dup1\n      swap2\n      pop\n      pop\n      0x01\n      swap1\n      sub\n      swap1\n      0x00\n      mstore\n      keccak256(0x00, 0x20)\n      add\n      0x00\n      swap1\n      swap2\n      swap1\n      swap2\n      swap1\n      swap2\n      0x0100\n      exp\n      dup2\n      sload\n      dup2\n      0xffffffffffffffffffffffffffffffffffffffff\n      mul\n      not\n      and\n      swap1\n      dup4\n      0xffffffffffffffffffffffffffffffffffffffff\n      and\n      mul\n      or\n      swap1\n      sstore\n      pop\n        /* \"main.sol\":582:591  msg.value */\n      callvalue\n        /* \"main.sol\":574:579  money */\n      sload(0x02)\n        /* \"main.sol\":574:591  money + msg.value */\n      add\n        /* \"main.sol\":566:571  money */\n      0x02\n        /* \"main.sol\":566:591  money = money + msg.value */\n      dup2\n      swap1\n      sstore\n      pop\n        /* \"main.sol\":389:598  function bid() public payable raffleIsOpen(ended) {... */\n      pop\n      jump\t// out\n        /* \"main.sol\":604:855  function raffleEnd() public raffleIsOpen(ended) {... */\n    tag_8:\n        /* \"main.sol\":645:650  ended */\n      0x03\n      0x00\n      swap1\n      sload\n      swap1\n      0x0100\n      exp\n      swap1\n      div\n      0xff\n      and\n        /* \"main.sol\":255:260  isEnd */\n      dup1\n        /* \"main.sol\":254:260  !isEnd */\n      iszero\n        /* \"main.sol\":246:288  require(!isEnd, \"Raffle is already ended\") */\n      tag_14\n      jumpi\n      mload(0x40)\n      0x08c379a000000000000000000000000000000000000000000000000000000000\n      dup2\n      mstore\n      0x04\n      add\n      dup1\n      dup1\n      0x20\n      add\n      dup3\n      dup2\n      sub\n      dup3\n      mstore\n      0x17\n      dup2\n      mstore\n      0x20\n      add\n      dup1\n      0x526166666c6520697320616c726561647920656e646564000000000000000000\n      dup2\n      mstore\n      pop\n      0x20\n      add\n      swap2\n      pop\n      pop\n      mload(0x40)\n      dup1\n      swap2\n      sub\n      swap1\n      revert\n    tag_14:\n        /* \"main.sol\":671:675  true */\n      0x01\n        /* \"main.sol\":663:668  ended */\n      0x03\n      0x00\n        /* \"main.sol\":663:675  ended = true */\n      0x0100\n      exp\n      dup2\n      sload\n      dup2\n      0xff\n      mul\n      not\n      and\n      swap1\n      dup4\n      iszero\n      iszero\n      mul\n      or\n      swap1\n      sstore\n      pop\n        /* \"main.sol\":691:709  RaffleEnded(money) */\n      0xea9b3e286c888f91dfb0567aead086fe3c33239ddee154b7064f3043760cf053\n        /* \"main.sol\":703:708  money */\n      sload(0x02)\n        /* \"main.sol\":691:709  RaffleEnded(money) */\n      mload(0x40)\n      dup1\n      dup3\n      dup2\n      mstore\n      0x20\n      add\n      swap2\n      pop\n      pop\n      mload(0x40)\n      dup1\n      swap2\n      sub\n      swap1\n      log1\n        /* \"main.sol\":720:747  address payable beneficiary */\n      0x00\n        /* \"main.sol\":750:762  participants */\n      dup1\n        /* \"main.sol\":763:791  randMod(participants.length) */\n      tag_16\n        /* \"main.sol\":771:783  participants */\n      0x00\n        /* \"main.sol\":771:790  participants.length */\n      dup1\n      sload\n      swap1\n      pop\n        /* \"main.sol\":763:770  randMod */\n      tag_17\n        /* \"main.sol\":763:791  randMod(participants.length) */\n      jump\t// in\n    tag_16:\n        /* \"main.sol\":750:792  participants[randMod(participants.length)] */\n      dup2\n      sload\n      dup2\n      lt\n      tag_18\n      jumpi\n      invalid\n    tag_18:\n      swap1\n      0x00\n      mstore\n      keccak256(0x00, 0x20)\n      add\n      0x00\n      swap1\n      sload\n      swap1\n      0x0100\n      exp\n      swap1\n      div\n      0xffffffffffffffffffffffffffffffffffffffff\n      and\n        /* \"main.sol\":720:792  address payable beneficiary = participants[randMod(participants.length)] */\n      swap1\n      pop\n        /* \"main.sol\":802:813  beneficiary */\n      dup1\n        /* \"main.sol\":802:822  beneficiary.transfer */\n      0xffffffffffffffffffffffffffffffffffffffff\n      and\n        /* \"main.sol\":802:829  beneficiary.transfer(money) */\n      0x08fc\n        /* \"main.sol\":823:828  money */\n      sload(0x02)\n        /* \"main.sol\":802:829  beneficiary.transfer(money) */\n      swap1\n      dup2\n      iszero\n      mul\n      swap1\n      mload(0x40)\n      0x00\n      mload(0x40)\n      dup1\n      dup4\n      sub\n      dup2\n      dup6\n      dup9\n      dup9\n      call\n      swap4\n      pop\n      pop\n      pop\n      pop\n      iszero\n      dup1\n      iszero\n      tag_21\n      jumpi\n      returndatasize\n      0x00\n      dup1\n      returndatacopy\n      revert(0x00, returndatasize)\n    tag_21:\n      pop\n        /* \"main.sol\":847:848  0 */\n      0x00\n        /* \"main.sol\":839:844  money */\n      0x02\n        /* \"main.sol\":839:848  money = 0 */\n      dup2\n      swap1\n      sstore\n      pop\n        /* \"main.sol\":290:291  _ */\n      pop\n        /* \"main.sol\":604:855  function raffleEnd() public raffleIsOpen(ended) {... */\n      pop\n      jump\t// out\n        /* \"main.sol\":865:1035  function randMod(uint _modulus) internal returns(uint) {... */\n    tag_17:\n        /* \"main.sol\":914:918  uint */\n      0x00\n        /* \"main.sol\":1020:1028  _modulus */\n      dup2\n        /* \"main.sol\":969:984  block.timestamp */\n      timestamp\n        /* \"main.sol\":986:1002  block.difficulty */\n      difficulty\n        /* \"main.sol\":1004:1014  msg.sender */\n      caller\n        /* \"main.sol\":952:1015  abi.encodePacked(block.timestamp, block.difficulty, msg.sender) */\n      add(0x20, mload(0x40))\n      dup1\n      dup5\n      dup2\n      mstore\n      0x20\n      add\n      dup4\n      dup2\n      mstore\n      0x20\n      add\n      dup3\n      0xffffffffffffffffffffffffffffffffffffffff\n      and\n      0x60\n      shl\n      dup2\n      mstore\n      0x14\n      add\n      swap4\n      pop\n      pop\n      pop\n      pop\n      mload(0x40)\n      0x20\n      dup2\n      dup4\n      sub\n      sub\n      dup2\n      mstore\n      swap1\n      0x40\n      mstore\n        /* \"main.sol\":942:1016  keccak256(abi.encodePacked(block.timestamp, block.difficulty, msg.sender)) */\n      dup1\n      mload\n      swap1\n      0x20\n      add\n      keccak256\n        /* \"main.sol\":937:1017  uint(keccak256(abi.encodePacked(block.timestamp, block.difficulty, msg.sender))) */\n      0x00\n      shr\n        /* \"main.sol\":937:1028  uint(keccak256(abi.encodePacked(block.timestamp, block.difficulty, msg.sender))) % _modulus */\n      dup2\n      tag_23\n      jumpi\n      invalid\n    tag_23:\n      mod\n        /* \"main.sol\":930:1028  return uint(keccak256(abi.encodePacked(block.timestamp, block.difficulty, msg.sender))) % _modulus */\n      swap1\n      pop\n        /* \"main.sol\":865:1035  function randMod(uint _modulus) internal returns(uint) {... */\n      swap2\n      swap1\n      pop\n      jump\t// out\n\n    auxdata: 0xa2646970667358221220475129020dd00d69195d40789902ec01059ea23fd05e420cd678280fd3f5d44164736f6c63430007060033\n}\n",
				"bytecode": {
					"linkReferences": {},
					"object": "608060405233600160006101000a81548173ffffffffffffffffffffffffffffffffffffffff021916908373ffffffffffffffffffffffffffffffffffffffff16021790555060006002819055506103548061005c6000396000f3fe6080604052600436106100295760003560e01c80631998aeef1461002e578063a558d89314610038575b600080fd5b61003661004f565b005b34801561004457600080fd5b5061004d610144565b005b600360009054906101000a900460ff1680156100d3576040517f08c379a00000000000000000000000000000000000000000000000000000000081526004018080602001828103825260178152602001807f526166666c6520697320616c726561647920656e64656400000000000000000081525060200191505060405180910390fd5b6000339080600181540180825580915050600190039060005260206000200160009091909190916101000a81548173ffffffffffffffffffffffffffffffffffffffff021916908373ffffffffffffffffffffffffffffffffffffffff160217905550346002540160028190555050565b600360009054906101000a900460ff1680156101c8576040517f08c379a00000000000000000000000000000000000000000000000000000000081526004018080602001828103825260178152602001807f526166666c6520697320616c726561647920656e64656400000000000000000081525060200191505060405180910390fd5b6001600360006101000a81548160ff0219169083151502179055507fea9b3e286c888f91dfb0567aead086fe3c33239ddee154b7064f3043760cf0536002546040518082815260200191505060405180910390a160008061022d6000805490506102b9565b8154811061023757fe5b9060005260206000200160009054906101000a900473ffffffffffffffffffffffffffffffffffffffff1690508073ffffffffffffffffffffffffffffffffffffffff166108fc6002549081150290604051600060405180830381858888f193505050501580156102ac573d6000803e3d6000fd5b5060006002819055505050565b600081424433604051602001808481526020018381526020018273ffffffffffffffffffffffffffffffffffffffff1660601b815260140193505050506040516020818303038152906040528051906020012060001c8161031657fe5b06905091905056fea2646970667358221220475129020dd00d69195d40789902ec01059ea23fd05e420cd678280fd3f5d44164736f6c63430007060033",
					"opcodes": "PUSH1 0x80 PUSH1 0x40 MSTORE CALLER PUSH1 0x1 PUSH1 0x0 PUSH2 0x100 EXP DUP2 SLOAD DUP2 PUSH20 0xFFFFFFFFFFFFFFFFFFFFFFFFFFFFFFFFFFFFFFFF MUL NOT AND SWAP1 DUP4 PUSH20 0xFFFFFFFFFFFFFFFFFFFFFFFFFFFFFFFFFFFFFFFF AND MUL OR SWAP1 SSTORE POP PUSH1 0x0 PUSH1 0x2 DUP2 SWAP1 SSTORE POP PUSH2 0x354 DUP1 PUSH2 0x5C PUSH1 0x0 CODECOPY PUSH1 0x0 RETURN INVALID PUSH1 0x80 PUSH1 0x40 MSTORE PUSH1 0x4 CALLDATASIZE LT PUSH2 0x29 JUMPI PUSH1 0x0 CALLDATALOAD PUSH1 0xE0 SHR DUP1 PUSH4 0x1998AEEF EQ PUSH2 0x2E JUMPI DUP1 PUSH4 0xA558D893 EQ PUSH2 0x38 JUMPI JUMPDEST PUSH1 0x0 DUP1 REVERT JUMPDEST PUSH2 0x36 PUSH2 0x4F JUMP JUMPDEST STOP JUMPDEST CALLVALUE DUP1 ISZERO PUSH2 0x44 JUMPI PUSH1 0x0 DUP1 REVERT JUMPDEST POP PUSH2 0x4D PUSH2 0x144 JUMP JUMPDEST STOP JUMPDEST PUSH1 0x3 PUSH1 0x0 SWAP1 SLOAD SWAP1 PUSH2 0x100 EXP SWAP1 DIV PUSH1 0xFF AND DUP1 ISZERO PUSH2 0xD3 JUMPI PUSH1 0x40 MLOAD PUSH32 0x8C379A000000000000000000000000000000000000000000000000000000000 DUP2 MSTORE PUSH1 0x4 ADD DUP1 DUP1 PUSH1 0x20 ADD DUP3 DUP2 SUB DUP3 MSTORE PUSH1 0x17 DUP2 MSTORE PUSH1 0x20 ADD DUP1 PUSH32 0x526166666C6520697320616C726561647920656E646564000000000000000000 DUP2 MSTORE POP PUSH1 0x20 ADD SWAP2 POP POP PUSH1 0x40 MLOAD DUP1 SWAP2 SUB SWAP1 REVERT JUMPDEST PUSH1 0x0 CALLER SWAP1 DUP1 PUSH1 0x1 DUP2 SLOAD ADD DUP1 DUP3 SSTORE DUP1 SWAP2 POP POP PUSH1 0x1 SWAP1 SUB SWAP1 PUSH1 0x0 MSTORE PUSH1 0x20 PUSH1 0x0 KECCAK256 ADD PUSH1 0x0 SWAP1 SWAP2 SWAP1 SWAP2 SWAP1 SWAP2 PUSH2 0x100 EXP DUP2 SLOAD DUP2 PUSH20 0xFFFFFFFFFFFFFFFFFFFFFFFFFFFFFFFFFFFFFFFF MUL NOT AND SWAP1 DUP4 PUSH20 0xFFFFFFFFFFFFFFFFFFFFFFFFFFFFFFFFFFFFFFFF AND MUL OR SWAP1 SSTORE POP CALLVALUE PUSH1 0x2 SLOAD ADD PUSH1 0x2 DUP2 SWAP1 SSTORE POP POP JUMP JUMPDEST PUSH1 0x3 PUSH1 0x0 SWAP1 SLOAD SWAP1 PUSH2 0x100 EXP SWAP1 DIV PUSH1 0xFF AND DUP1 ISZERO PUSH2 0x1C8 JUMPI PUSH1 0x40 MLOAD PUSH32 0x8C379A000000000000000000000000000000000000000000000000000000000 DUP2 MSTORE PUSH1 0x4 ADD DUP1 DUP1 PUSH1 0x20 ADD DUP3 DUP2 SUB DUP3 MSTORE PUSH1 0x17 DUP2 MSTORE PUSH1 0x20 ADD DUP1 PUSH32 0x526166666C6520697320616C726561647920656E646564000000000000000000 DUP2 MSTORE POP PUSH1 0x20 ADD SWAP2 POP POP PUSH1 0x40 MLOAD DUP1 SWAP2 SUB SWAP1 REVERT JUMPDEST PUSH1 0x1 PUSH1 0x3 PUSH1 0x0 PUSH2 0x100 EXP DUP2 SLOAD DUP2 PUSH1 0xFF MUL NOT AND SWAP1 DUP4 ISZERO ISZERO MUL OR SWAP1 SSTORE POP PUSH32 0xEA9B3E286C888F91DFB0567AEAD086FE3C33239DDEE154B7064F3043760CF053 PUSH1 0x2 SLOAD PUSH1 0x40 MLOAD DUP1 DUP3 DUP2 MSTORE PUSH1 0x20 ADD SWAP2 POP POP PUSH1 0x40 MLOAD DUP1 SWAP2 SUB SWAP1 LOG1 PUSH1 0x0 DUP1 PUSH2 0x22D PUSH1 0x0 DUP1 SLOAD SWAP1 POP PUSH2 0x2B9 JUMP JUMPDEST DUP2 SLOAD DUP2 LT PUSH2 0x237 JUMPI INVALID JUMPDEST SWAP1 PUSH1 0x0 MSTORE PUSH1 0x20 PUSH1 0x0 KECCAK256 ADD PUSH1 0x0 SWAP1 SLOAD SWAP1 PUSH2 0x100 EXP SWAP1 DIV PUSH20 0xFFFFFFFFFFFFFFFFFFFFFFFFFFFFFFFFFFFFFFFF AND SWAP1 POP DUP1 PUSH20 0xFFFFFFFFFFFFFFFFFFFFFFFFFFFFFFFFFFFFFFFF AND PUSH2 0x8FC PUSH1 0x2 SLOAD SWAP1 DUP2 ISZERO MUL SWAP1 PUSH1 0x40 MLOAD PUSH1 0x0 PUSH1 0x40 MLOAD DUP1 DUP4 SUB DUP2 DUP6 DUP9 DUP9 CALL SWAP4 POP POP POP POP ISZERO DUP1 ISZERO PUSH2 0x2AC JUMPI RETURNDATASIZE PUSH1 0x0 DUP1 RETURNDATACOPY RETURNDATASIZE PUSH1 0x0 REVERT JUMPDEST POP PUSH1 0x0 PUSH1 0x2 DUP2 SWAP1 SSTORE POP POP POP JUMP JUMPDEST PUSH1 0x0 DUP2 TIMESTAMP DIFFICULTY CALLER PUSH1 0x40 MLOAD PUSH1 0x20 ADD DUP1 DUP5 DUP2 MSTORE PUSH1 0x20 ADD DUP4 DUP2 MSTORE PUSH1 0x20 ADD DUP3 PUSH20 0xFFFFFFFFFFFFFFFFFFFFFFFFFFFFFFFFFFFFFFFF AND PUSH1 0x60 SHL DUP2 MSTORE PUSH1 0x14 ADD SWAP4 POP POP POP POP PUSH1 0x40 MLOAD PUSH1 0x20 DUP2 DUP4 SUB SUB DUP2 MSTORE SWAP1 PUSH1 0x40 MSTORE DUP1 MLOAD SWAP1 PUSH1 0x20 ADD KECCAK256 PUSH1 0x0 SHR DUP2 PUSH2 0x316 JUMPI INVALID JUMPDEST MOD SWAP1 POP SWAP2 SWAP1 POP JUMP INVALID LOG2 PUSH5 0x6970667358 0x22 SLT KECCAK256 SELFBALANCE MLOAD 0x29 MUL 0xD 0xD0 0xD PUSH10 0x195D40789902EC01059E LOG2 EXTCODEHASH 0xD0 0x5E TIMESTAMP 0xC 0xD6 PUSH25 0x280FD3F5D44164736F6C634300070600330000000000000000 "
				},
				"gasEstimates": {
					"creation": {
						"codeDepositCost": "170400",
						"executionCost": "26070",
						"totalCost": "196470"
					},
					"external": {
						"bid()": "63556",
						"raffleEnd()": "infinite"
					},
					"internal": {
						"randMod(uint256)": "infinite"
					}
				},
				"methodIdentifiers": {
					"bid()": "1998aeef",
					"raffleEnd()": "a558d893"
				}
			},
			"storageLayout": {
				"storage": [
					{
						"astId": 4,
						"contract": "main.sol:Raffle",
						"label": "participants",
						"offset": 0,
						"slot": "0",
						"type": "t_array(t_address_payable)dyn_storage"
					},
					{
						"astId": 6,
						"contract": "main.sol:Raffle",
						"label": "admin",
						"offset": 0,
						"slot": "1",
						"type": "t_address"
					},
					{
						"astId": 8,
						"contract": "main.sol:Raffle",
						"label": "money",
						"offset": 0,
						"slot": "2",
						"type": "t_uint256"
					},
					{
						"astId": 10,
						"contract": "main.sol:Raffle",
						"label": "ended",
						"offset": 0,
						"slot": "3",
						"type": "t_bool"
					}
				],
				"types": {
					"t_address": {
						"encoding": "inplace",
						"label": "address",
						"numberOfBytes": "20"
					},
					"t_address_payable": {
						"encoding": "inplace",
						"label": "address payable",
						"numberOfBytes": "20"
					},
					"t_array(t_address_payable)dyn_storage": {
						"base": "t_address_payable",
						"encoding": "dynamic_array",
						"label": "address payable[]",
						"numberOfBytes": "32"
					},
					"t_bool": {
						"encoding": "inplace",
						"label": "bool",
						"numberOfBytes": "1"
					},
					"t_uint256": {
						"encoding": "inplace",
						"label": "uint256",
						"numberOfBytes": "32"
					}
				}
			},
			"userdoc": {
				"kind": "user",
				"methods": {},
				"version": 1
			}
		}
	}
}